:020000040000FA
:100000008316FE30860000308800EC3089000E3008
:100010009F008312313090003A2006101920A31F50
:100020000D2806142A2006102A20413048200E28C8
:100030001828831600309F0083120D309F001F196F
:100040001F281E08A30083160E309F008312003065
:100050009F0008000230A2000B308E00DC308F00C1
:100060000C1C30280B308E00DC308F000C10A20BE3
:100070003028080038304E2038304E2038304E209E
:1000800006304E200C304E2001304E205920080002
:100090000914880089148910542008000910880068
:1000A00089148910542008002630A000A00B56287F
:0E00B00008004030A1005420A10B5B2808007E
:0200BE0000340C
:0200C00000340A
:02400E00BA3FB7
:00000001FF
