:020000040000FA
:100000008316FE30860000308800EC3089000E3008
:100010009F008312313090005820142015202D208D
:100020002D2041303D200D2808001C2000302302E7
:100030000319152808001B28831600309F0083121F
:100040000D309F001F1922281E08A30083160E30B2
:100050009F00831200309F0008000230A2000B3086
:100060008E00DC308F000C1C33280B308E00DC300F
:100070008F000C10A20B3328080009148800891483
:100080008910492008000910880089148910492026
:1000900008002630A000A00B4B2808004030A1002B
:1000A0004920A10B50280800013043204E200800B1
:1000B0003830432038304320383043200630432046
:0C00C0000C304320013043204E2008008B
:0400CC0000340034C8
:02400E00BA3FB7
:00000001FF
