:020000040000FA
:100000008316FC308600E730870000308800E83037
:1000100089000E309F00831231309000ED2029209E
:100020002B200830C320B220312066200430C320AA
:1000300009150230C3205A30D220B2200030A3026A
:10004000031D23282528522019284B200830C320BF
:100050000F284B200800B2200030A30203192B28E0
:100060000800A31F38280A30A5003430D2204A28BF
:10007000231F3F280730A5003330D2204A28A31E73
:1000800046280530A5004330D2204A280030A5007C
:100090004D30D22008001E30A6001430A7000610F4
:1000A000861008000030A60203195828A60308008D
:1000B00006185C2806145D2806100030A7020319F4
:1000C0006328A7036528861C861408000030A50253
:1000D000031908004B200230C320031003115730CE
:1000E000D2208316033088008312081C7A2802303D
:1000F000A5028728881C7F280530A502872883163B
:1001000000308800831252205830D2206B2883168A
:100110000030880083124B205930D2205130D22039
:10012000031899285430D220031908005230D220E5
:100130006B282508A400FF30A5002408A502A50A05
:1001400087150230C32087110230C3200716023002
:10015000C32007120230C3200130A502031DA028CE
:100160000800B128831600309F0083120D309F00D5
:100170001F19B8281E08A30083160E309F00831293
:1001800000309F000800A2000B308E00DC308F0092
:100190000C1CC8280B308E00DC308F000C10A20B1A
:1001A000C82808000914880089148910DE20080076
:1001B0000910880089148910DE2008002630A0006C
:1001C000A00BE02808004030A100DE20A10BE528AC
:1001D00008000130D820E32008003830D82038301B
:1001E000D8203830D8200630D8200C30D820013024
:0601F000D820E320080006
:0401F600003400349D
:02400E00BA3FB7
:00000001FF
