:020000040000FA
:100000008316FE30860000308800EC3089000E3008
:100010009F0083123130900070201320142008308C
:1000200046201A200D28080035200030230203192D
:1000300014280800A31F21280A30A40041305520AD
:100040003328231F28280730A400423055203328A6
:10005000A31E2F280530A40043305520332800303C
:10006000A4004430552008003428831600309F0037
:1000700083120D309F001F193B281E08A300831612
:100080000E309F00831200309F000800A2000B304A
:100090008E00DC308F000C1C4B280B308E00DC30C7
:1000A0008F000C10A20B4B2808000914880089143B
:1000B00089106120080009108800891489106120C6
:1000C00008002630A000A00B632808004030A100E3
:1000D0006120A10B6828080001305B206620080021
:1000E00038305B2038305B2038305B2006305B20B6
:0C00F0000C305B2001305B206620080013
:0400FC000034003498
:02400E00BA3FB7
:00000001FF
